:020000001028C6
:10000800FE00030EF1000408F2000A08F300831250
:1000180003137F08F4006B2A1128F601F701F80191
:1000280083132D3084003930F52283015C29213077
:100038008312031396008316031340123130FD22F6
:10004800192383160313C0163230FD221923831691
:10005800031340133330FD22192383160313C017EB
:10006800643083120313A4000030A50096223430B4
:10007800FD22192383160313C0120F3083120313B2
:10008800A0000030A100C52283160313C016353026
:10009800FD2219230F3083120313A0000030A100A2
:1000A800C5223630FD221923FD30052312300523E1
:1000B8003730FD221923AE3005233830FD221923AD
:1000C800A0300523603005233930FD221923A130E3
:1000D8000523003005233130FD223030FD2219235D
:1000E800A2300523003005233130FD223130FD22B6
:1000F8001923A43005233130FD223230FD22192383
:10010800A83005233F3005233130FD223330FD224E
:100118001923AD3005238E3005233130FD223430CC
:10012800FD221923B03005230B3005233130FD2281
:100138003530FD221923B130052331300523313004
:10014800FD223630FD221923B3300523F030052374
:100158003130FD223730FD2219238A3005236430DF
:1001680005233130FD223830FD2219238B30052339
:10017800783005233130FD223930FD2219238C30A7
:100188000523643005233230FD223030FD22192347
:10019800BB3005233A3005233230FD223130FD22B1
:1001A8001923BE3005233E3005233230FD2232307C
:1001B800FD221923873005230E3005233230FD2216
:1001C8003330FD22192381300523FF3005233230D7
:1001D800FD223430FD22192382300523FF30052308
:1001E8003230FD223530FD22192383300523FF30BC
:1001F80005233230FD223630FD2219232E30052307
:100208003230FD223730FD221923263005230130F4
:1002180005233230FD223830FD22192325300523ED
:1002280000300523003005235F3005233F300523C8
:100238003230FD223930FD2219238316031340176B
:100248007D3083120313A4000030A50096223330BA
:10025800FD223030FD221923AF300523C830831228
:100268000313A4000030A50096223330FD2231305C
:10027800FD2219234630FD226930FD226E30FD2211
:100288002030FD224930FD226E30FD226930FD22EA
:100298007430FD222030FD224F30FD224C30FD22EB
:1002A8004530FD224430FD222030FD22192308006C
:1002B80003221B20E722323083120313A4000030EC
:1002C800A50096220D2383120313AC01101C70297C
:1002D8001108A8002808AC0052302C06031D782904
:1002E800BF30980099010D1049302C06031DE029F4
:1002F800E7225330FD226530FD226E30FD22643046
:10030800FD222030FD226230FD226930FD2274304A
:10031800FD226D30FD226130FD227030FD2220303B
:10032800FD225430FD226530FD227830FD227430E4
:10033800FD226630FD226930FD226C30FD226530D9
:10034800FD22192383160313401683120313AA01EF
:10035800AB012B08803AFF00B0307F02031DB6299D
:1003680000302A020318D329D92283120313A800C4
:100378002808A90029080523013083120313AA07B6
:100388000318AB0A0030AB072B08803AFF00B030E7
:100398007F02031DD12900302A02031CB8298316C5
:1003A800031340124430FD224F30FD224E30FD220F
:1003B8004530FD2219230D234330831203132C06E5
:1003C800031D6729E7225330FD226330FD22723076
:1003D800FD226530FD226530FD226E30FD2243305E
:1003E800FD226C30FD226530FD226130FD22723025
:1003F800FD226530FD226430FD2219236729FF3074
:1004080083120313A0002008AD00FF30A0002008CD
:10041800AE00FF30A0002008AF00FF30A000200889
:10042800B000A130A0002008B1008630A00020084C
:10043800B200C730A0002008B300C030A0002008D8
:10044800B400FE3099008B018B168B17073083168A
:10045800031381004F30FD224C30FD224530FD2230
:100468004430FD227230FD226730FD226230FD22C9
:10047800192308001323F5007508F80030307802B6
:100488000318482AFF3008003A30780203184F2A28
:100498007808D03E0800413078020318552AFF300A
:1004A80008004730780203185C2A7808C93E08001B
:1004B800613078020318622AFF300800673078023A
:1004C8000318692A7808A93E0800780808000B1163
:1004D800FF3098000310990DFE3019060319782A89
:1004E8000130F000700899077608013E0739F000DE
:1004F8007008F60076082D3E8400831300089800E3
:100508007608031D8B2A0130F0007008F70774087D
:10051800FF0073088A0072088400710E8300FE0EC3
:100528007E0E0900831203132508A7002408A600DD
:100538008312031326082704031908000130A602B2
:100548000030031CA703A702A430A0000630A100B6
:10055800C5229C2A83120313A10083160313401299
:100568001530052383120313210805235F30052363
:100578007530052383120313200805233F30052314
:100588000800831203132108A3002008A200831285
:10059800031322082304031908000130A2020030C3
:1005A800031CA303A3026400CB2A3E228312031375
:1005B800A0002008A100A10EF030A1053E22831260
:1005C800031321070800831603134012253005235F
:1005D80000300523003005235F3005233F30052315
:1005E800080064008001840A040603190034040624
:1005F800F62AF500831203139018FE2A7508910055
:100608000800F5007508831203139700161C0800EC
:100618000A2B83120313A0010030AE2208008312B4
:100628000313101C132B110808000A30FD220D308B
:04063800FD22080097
:00000001FF
