:020000001028C6
:10000800FE00030EF1000408F2000A08F300831250
:1000180003137F08F400662A1128F601F701F80196
:1000280083132D3084003930F02283015729213081
:100038008312031396008316031340123130F822FB
:10004800142383160313C0163230F82214238316A0
:10005800031340133330F822142383160313C017F5
:10006800643083120313A4000030A50091223430B9
:10007800F822142383160313C0120F3083120313BC
:10008800A0000030A100C02283160313C0160F3051
:1000980083120313A0000030A100C0223530F822DB
:1000A8001423FD300023123000233630F8221423A5
:1000B800AE3000233730F8221423A03000236030FC
:1000C80000233830F8221423A13000230030002305
:1000D8003930F8221423A2300023003000233130B5
:1000E800F8223030F8221423A43000233130F822CB
:1000F8003130F8221423A83000233F300023313058
:10010800F8223230F8221423AD3000238E30002339
:100118003130F8223330F8221423B03000230B306A
:1001280000233130F8223430F8221423B130002370
:10013800313000233130F8223530F8221423B3301F
:100148000023F03000233130F8223630F82214230F
:100158008A300023643000233130F8223730F82207
:1001680014238B300023783000233130F8223830C4
:10017800F82214238C300023643000233130F82215
:100188003930F8221423BB3000233A3000233230B0
:10019800F8223030F8221423BE3000233E300023EA
:1001A8003230F8223130F822142387300023063009
:1001B80000233230F8223230F82214238130002311
:1001C800FF3000233230F8223330F82214238230F3
:1001D8000023FF3000233230F8223430F822142371
:1001E80083300023FF3000233230F8223530F822E4
:1001F80014232E3000233230F8223630F82214230C
:1002080026300023013000233230F8223730F8221C
:1002180014232530002300300023003000235F30F2
:1002280000233F3000233230F8223830F8221423DC
:100238008316031340177D3083120313A400003084
:10024800A50091223230F8223930F8221423AF3039
:100258000023C83083120313A4000030A5009122A4
:100268003330F8223030F82214234630F82269302F
:10027800F8226E30F8222030F8224930F8226E3009
:10028800F8226930F8227430F8222030F8224F30F2
:10029800F8224C30F8224530F8224430F822203039
:1002A800F82214230800FE211B20E2223230831298
:1002B8000313A4000030A50091220823831203131E
:1002C800AC01101C6B291108A8002808AC0052309A
:1002D8002C06031D7329BF30980099010D10493071
:1002E8002C06031DDB29E2225330F8226530F82260
:1002F8006E30F8226430F8222030F8226230F8227A
:100308006930F8227430F8226D30F8226130F82212
:100318007030F8222030F8225430F8226530F82264
:100328007830F8227430F8226630F8226930F822E2
:100338006C30F8226530F822142383160313401614
:1003480083120313AA01AB012B08803AFF00B030D7
:100358007F02031DB12900302A020318CE29D422B6
:1003680083120313A8002808A900290800230130D4
:1003780083120313AA070318AB0A0030AB072B0834
:10038800803AFF00B0307F02031DCC2900302A02DA
:10039800031CB3298316031340124430F8224F304C
:1003A800F8224E30F8224530F8221423082343302F
:1003B800831203132C06031D6229E2225330F8220C
:1003C8006330F8227230F8226530F8226530F8225E
:1003D8006E30F8224330F8226C30F8226530F8226B
:1003E8006130F8227230F8226530F8226430F82241
:1003F80014236229FF3083120313A0002008AD00E4
:10040800FF30A0002008AE00FF30A0002008AF0099
:10041800FF30A0002008B000A130A0002008B100E3
:100428008630A0002008B200C730A0002008B30022
:10043800C030A0002008B400FE3099008B018B1654
:100448008B1707308316031381004F30F8224C3086
:10045800F8224530F8224430F8227230F82267300A
:10046800F8226230F822142308000E23F5007508DC
:10047800F800303078020318432AFF3008003A3079
:10048800780203184A2A7808D03E080041307802DA
:100498000318502AFF300800473078020318572AFB
:1004A8007808C93E08006130780203185D2AFF30D9
:1004B8000800673078020318642A7808A93E080003
:1004C800780808000B11FF3098000310990DFE30D2
:1004D80019060319732A0130F00070089907760885
:1004E800013E0739F0007008F60076082D3E8400BA
:1004F8008313000898007608031D862A0130F0004F
:100508007008F7077408FF0073088A0072088400EF
:10051800710E8300FE0E7E0E090083120313250858
:10052800A7002408A600831203132608270403192A
:1005380008000130A6020030031CA703A702A4305C
:10054800A0000630A100C022972A83120313A1003D
:100558008316031340121530002383120313210856
:1005680000235F3000237530002383120313200813
:1005780000233F3000230800831203132108A3003F
:100588002008A20083120313220823040319080079
:100598000130A2020030031CA303A3026400C62A90
:1005A800392283120313A0002008A100A10EF03005
:1005B800A1053922831203132107080083160313A8
:1005C80040122530002300300023003000235F3024
:1005D80000233F300023080064008001840A0406D9
:1005E800031900340406F12AF50083120313901846
:1005F800F92A750891000800F5007508831203139D
:100608009700161C0800052B83120313A001003065
:10061800A922080083120313101C0E2B11080800CE
:0A0628000A30F8220D30F822080015
:00000001FF
