:020000001028C6
:10000800FE00030EF1000408F2000A08F300831250
:1000180003137F08F400A42A1128F601F701F80158
:100028008313203084002C301D238301E72A831694
:100038000313401231302523203025230A3025238D
:1000480083160313C01632302523203025230A30A7
:10005800252383160313401333302523203025230B
:100068000A30252383160313C01764308312031341
:10007800B0000030B100CF223430252320302523B2
:100088000A30252383160313C0120F30831203137B
:10009800AC000030AD00FD2283160313C0163530C6
:1000A8002523203025230A3025230F3083120313FC
:1000B800AC000030AD00FD2236302523203025234A
:1000C8000A30252375308312031396008316031311
:1000D8004012FD30112312301123373025232030F0
:1000E80025230A30252375308312031396008316BF
:1000F80003134012AE301123383025232030252336
:100108000A302523753083120313960083160313D0
:100118004012A030112372301123393025232030AA
:1001280025230A302523753083120313960083167E
:1001380003134012A130112300301123313025233D
:1001480030302523203025230A30252375308312AB
:1001580003139600831603134012A23011230030B4
:1001680011233130252331302523203025230A302F
:100178002523753083120313960083160313401248
:10018800A430112331302523323025232030252374
:100198000A30252375308312031396008316031340
:1001A8004012A83011233F3011233130252333303A
:1001B8002523203025230A30252375308312031385
:1001C8009600831603134012AD3011238E3011238D
:1001D8003130252334302523203025230A302523A8
:1001E8007530831203139600831603134012B03040
:1001F80011230B30112331302523353025232030AE
:1002080025230A302523753083120313960083169D
:1002180003134012B130112331301123313025231B
:1002280036302523203025230A30252375308312C4
:1002380003139600831603134012B3301123F030D2
:1002480011233130252337302523203025230A3048
:100258002523753083120313960083160313401267
:100268008A30112364301123313025233830252377
:10027800203025230A302523753083120313960076
:100288008316031340128B30112378301123313039
:10029800252339302523203025230A30252375309E
:1002A8008312031396008316031340128C30112314
:1002B8006430112332302523303025232030252384
:1002C8000A3025237530831203139600831603130F
:1002D8004012BB3011233A301123323025233130FC
:1002E8002523203025230A30252375308312031354
:1002F8009600831603134012BE3011233E3011239B
:100308003230252332302523203025230A30252377
:100318007530831203139600831603134012873037
:100328001123063011233230252333302523203082
:1003380025230A302523753083120313960083166C
:1003480003134012813011239130112332302523B9
:1003580034302523203025230A3025237530831295
:100368000313960083160313401282301123503072
:1003780011233230252335302523203025230A3018
:100388002523753083120313960083160313401236
:10039800833011237D301123323025233630252335
:1003A800203025230A302523753083120313960045
:1003B800831603134012253011233230252337309A
:1003C8002523203025230A30252375308312031373
:1003D8009600831603134012253011230030112391
:1003E800003011235F3011233F3011233230252391
:1003F80038302523203025230A302523831603137C
:1004080040177D3083120313B0000030B100CF22B3
:100418003230252339302523203025230A3025235F
:100428007530831203139600831603134012AF30FE
:1004380011233330252330302523203025230A305B
:100448002523F43083120313B0000130B100CF220A
:1004580075308312031396008316031340128130FC
:1004680011230800FF3083120313AC002C08A000EE
:10047800FF30AC002C08A100FF30AC002C08A20013
:10048800FF30AC002C08A300A130AC002C08A4005D
:100498008630AC002C08A500C730AC002C08A6009C
:1004A800C030AC002C08A700FE3099008B018B16D9
:1004B8008B1707308316031381000A302523303049
:1004C80025234C30252345302523443025237230FD
:1004D800252367302523623025232D230800831226
:1004E8000313AE002E08AC0004300310AC0CFF3E22
:1004F800031D792A2C08303EAD002D08AF003A3094
:100508002F02031C8C2A2F08073EAC002C08AF00D2
:1005180090188C2A2F0891002E080F39303EAC0015
:100528002C08AF003A302F02031C9F2A2F08073EE1
:10053800AC002C08AF0090189F2A2F0891000800E3
:100548000B11FF3098000310990DFE30190603199E
:10055800B12A0130F000700899077608013E073982
:10056800F0007008F6007608203E84008313000827
:1005780098007608031DC42A0130F0007008F707B8
:100588007408FF0073088A0072088400710E8300E3
:10059800FE0E7E0E0900831203133108B3003008E3
:1005A800B200831203133208330403190800013020
:1005B800B2020030031CB303B302A430AC0006300F
:1005C800AD00FD22D52A36221B20831603134016C0
:1005D8008312B501101CF42A1108B4003408B500C0
:1005E80052303506031DEC2ABF30980099010D10D2
:1005F800EC2A831203132D08AF002C08AE008312D7
:1006080003132E082F04031908000130AE0200302E
:10061800031CAF03AF026400032B83120313B00063
:10062800300897001618162B30087322203025231F
:10063800080064008001840A0406031900340406D3
:100648001E2BF500831203139018262B75089100B2
:0C06580008000A3025230D30252308007F
:00000001FF
